{
  "contractName": "Form",
  "abi": [
    {
      "constant": true,
      "inputs": [],
      "name": "messagesIndex",
      "outputs": [
        {
          "name": "",
          "type": "uint256"
        }
      ],
      "payable": false,
      "stateMutability": "view",
      "type": "function"
    },
    {
      "constant": false,
      "inputs": [],
      "name": "renounceOwnership",
      "outputs": [],
      "payable": false,
      "stateMutability": "nonpayable",
      "type": "function"
    },
    {
      "constant": true,
      "inputs": [],
      "name": "owner",
      "outputs": [
        {
          "name": "",
          "type": "address"
        }
      ],
      "payable": false,
      "stateMutability": "view",
      "type": "function"
    },
    {
      "constant": false,
      "inputs": [
        {
          "name": "_newOwner",
          "type": "address"
        }
      ],
      "name": "transferOwnership",
      "outputs": [],
      "payable": false,
      "stateMutability": "nonpayable",
      "type": "function"
    },
    {
      "anonymous": false,
      "inputs": [
        {
          "indexed": true,
          "name": "previousOwner",
          "type": "address"
        }
      ],
      "name": "OwnershipRenounced",
      "type": "event"
    },
    {
      "anonymous": false,
      "inputs": [
        {
          "indexed": true,
          "name": "previousOwner",
          "type": "address"
        },
        {
          "indexed": true,
          "name": "newOwner",
          "type": "address"
        }
      ],
      "name": "OwnershipTransferred",
      "type": "event"
    },
    {
      "constant": false,
      "inputs": [
        {
          "name": "_body",
          "type": "string"
        },
        {
          "name": "_email",
          "type": "string"
        }
      ],
      "name": "sendApplication",
      "outputs": [],
      "payable": false,
      "stateMutability": "nonpayable",
      "type": "function"
    },
    {
      "constant": true,
      "inputs": [],
      "name": "getMessages",
      "outputs": [
        {
          "components": [
            {
              "name": "body",
              "type": "string"
            },
            {
              "name": "email",
              "type": "string"
            },
            {
              "name": "sender",
              "type": "address"
            },
            {
              "name": "createdAt",
              "type": "uint256"
            }
          ],
          "name": "",
          "type": "tuple[]"
        }
      ],
      "payable": false,
      "stateMutability": "view",
      "type": "function"
    },
    {
      "constant": true,
      "inputs": [
        {
          "name": "_messagesIndex",
          "type": "uint256"
        }
      ],
      "name": "getMessage",
      "outputs": [
        {
          "components": [
            {
              "name": "body",
              "type": "string"
            },
            {
              "name": "email",
              "type": "string"
            },
            {
              "name": "sender",
              "type": "address"
            },
            {
              "name": "createdAt",
              "type": "uint256"
            }
          ],
          "name": "",
          "type": "tuple"
        }
      ],
      "payable": false,
      "stateMutability": "view",
      "type": "function"
    }
  ],
  "bytecode": "0x6080604052336000806101000a81548173ffffffffffffffffffffffffffffffffffffffff021916908373ffffffffffffffffffffffffffffffffffffffff160217905550610f65806100536000396000f300608060405260043610610083576000357c0100000000000000000000000000000000000000000000000000000000900463ffffffff1680630ce3c2df1461008857806328c01e7a146100b15780635ff6cbf3146100dc578063715018a61461010757806386f79edb1461011e5780638da5cb5b1461015b578063f2fde38b14610186575b600080fd5b34801561009457600080fd5b506100af60048036036100aa9190810190610bb5565b6101af565b005b3480156100bd57600080fd5b506100c6610310565b6040516100d39190610e48565b60405180910390f35b3480156100e857600080fd5b506100f1610316565b6040516100fe9190610e04565b60405180910390f35b34801561011357600080fd5b5061011c610575565b005b34801561012a57600080fd5b5061014560048036036101409190810190610c2a565b610677565b6040516101529190610e26565b60405180910390f35b34801561016757600080fd5b506101706108ae565b60405161017d9190610de9565b60405180910390f35b34801561019257600080fd5b506101ad60048036036101a89190810190610b8c565b6108d3565b005b60806040519081016040528085858080601f016020809104026020016040519081016040528093929190818152602001838380828437820191505050505050815260200183838080601f01602080910402602001604051908101604052809392919081815260200183838082843782019150505050505081526020013373ffffffffffffffffffffffffffffffffffffffff16815260200142815250600260015481548110151561025c57fe5b90600052602060002090600402016000820151816000019080519060200190610286929190610a34565b5060208201518160010190805190602001906102a3929190610a34565b5060408201518160020160006101000a81548173ffffffffffffffffffffffffffffffffffffffff021916908373ffffffffffffffffffffffffffffffffffffffff1602179055506060820151816003015590505060016000815480929190600101919050555050505050565b60015481565b60606000809054906101000a900473ffffffffffffffffffffffffffffffffffffffff1673ffffffffffffffffffffffffffffffffffffffff163373ffffffffffffffffffffffffffffffffffffffff1614151561037357600080fd5b6002805480602002602001604051908101604052809291908181526020016000905b8282101561056c578382906000526020600020906004020160806040519081016040529081600082018054600181600116156101000203166002900480601f0160208091040260200160405190810160405280929190818152602001828054600181600116156101000203166002900480156104525780601f1061042757610100808354040283529160200191610452565b820191906000526020600020905b81548152906001019060200180831161043557829003601f168201915b50505050508152602001600182018054600181600116156101000203166002900480601f0160208091040260200160405190810160405280929190818152602001828054600181600116156101000203166002900480156104f45780601f106104c9576101008083540402835291602001916104f4565b820191906000526020600020905b8154815290600101906020018083116104d757829003601f168201915b505050505081526020016002820160009054906101000a900473ffffffffffffffffffffffffffffffffffffffff1673ffffffffffffffffffffffffffffffffffffffff1673ffffffffffffffffffffffffffffffffffffffff16815260200160038201548152505081526020019060010190610395565b50505050905090565b6000809054906101000a900473ffffffffffffffffffffffffffffffffffffffff1673ffffffffffffffffffffffffffffffffffffffff163373ffffffffffffffffffffffffffffffffffffffff161415156105d057600080fd5b6000809054906101000a900473ffffffffffffffffffffffffffffffffffffffff1673ffffffffffffffffffffffffffffffffffffffff167ff8df31144d9c2f0f6b59d69b8b98abd5459d07f2742c4df920b25aae33c6482060405160405180910390a260008060006101000a81548173ffffffffffffffffffffffffffffffffffffffff021916908373ffffffffffffffffffffffffffffffffffffffff160217905550565b61067f610ab4565b6000809054906101000a900473ffffffffffffffffffffffffffffffffffffffff1673ffffffffffffffffffffffffffffffffffffffff163373ffffffffffffffffffffffffffffffffffffffff161415156106da57600080fd5b6002828154811015156106e957fe5b906000526020600020906004020160806040519081016040529081600082018054600181600116156101000203166002900480601f01602080910402602001604051908101604052809291908181526020018280546001816001161561010002031660029004801561079c5780601f106107715761010080835404028352916020019161079c565b820191906000526020600020905b81548152906001019060200180831161077f57829003601f168201915b50505050508152602001600182018054600181600116156101000203166002900480601f01602080910402602001604051908101604052809291908181526020018280546001816001161561010002031660029004801561083e5780601f106108135761010080835404028352916020019161083e565b820191906000526020600020905b81548152906001019060200180831161082157829003601f168201915b505050505081526020016002820160009054906101000a900473ffffffffffffffffffffffffffffffffffffffff1673ffffffffffffffffffffffffffffffffffffffff1673ffffffffffffffffffffffffffffffffffffffff1681526020016003820154815250509050919050565b6000809054906101000a900473ffffffffffffffffffffffffffffffffffffffff1681565b6000809054906101000a900473ffffffffffffffffffffffffffffffffffffffff1673ffffffffffffffffffffffffffffffffffffffff163373ffffffffffffffffffffffffffffffffffffffff1614151561092e57600080fd5b6109378161093a565b50565b600073ffffffffffffffffffffffffffffffffffffffff168173ffffffffffffffffffffffffffffffffffffffff161415151561097657600080fd5b8073ffffffffffffffffffffffffffffffffffffffff166000809054906101000a900473ffffffffffffffffffffffffffffffffffffffff1673ffffffffffffffffffffffffffffffffffffffff167f8be0079c531659141344cd1fd0a4f28419497f9722a3daafe3b4186f6b6457e060405160405180910390a3806000806101000a81548173ffffffffffffffffffffffffffffffffffffffff021916908373ffffffffffffffffffffffffffffffffffffffff16021790555050565b828054600181600116156101000203166002900490600052602060002090601f016020900481019282601f10610a7557805160ff1916838001178555610aa3565b82800160010185558215610aa3579182015b82811115610aa2578251825591602001919060010190610a87565b5b509050610ab09190610af3565b5090565b6080604051908101604052806060815260200160608152602001600073ffffffffffffffffffffffffffffffffffffffff168152602001600081525090565b610b1591905b80821115610b11576000816000905550600101610af9565b5090565b90565b6000610b248235610ebd565b905092915050565b60008083601f8401121515610b4057600080fd5b8235905067ffffffffffffffff811115610b5957600080fd5b602083019150836001820283011115610b7157600080fd5b9250929050565b6000610b848235610edd565b905092915050565b600060208284031215610b9e57600080fd5b6000610bac84828501610b18565b91505092915050565b60008060008060408587031215610bcb57600080fd5b600085013567ffffffffffffffff811115610be557600080fd5b610bf187828801610b2c565b9450945050602085013567ffffffffffffffff811115610c1057600080fd5b610c1c87828801610b2c565b925092505092959194509250565b600060208284031215610c3c57600080fd5b6000610c4a84828501610b78565b91505092915050565b610c5c81610e93565b82525050565b6000610c6d82610e70565b80845260208401935083602082028501610c8685610e63565b60005b84811015610cbf578383038852610ca1838351610d70565b9250610cac82610e86565b9150602088019750600181019050610c89565b508196508694505050505092915050565b6000610cdb82610e7b565b808452610cef816020860160208601610ee7565b610cf881610f1a565b602085010191505092915050565b60006080830160008301518482036000860152610d238282610cd0565b91505060208301518482036020860152610d3d8282610cd0565b9150506040830151610d526040860182610c53565b506060830151610d656060860182610dda565b508091505092915050565b60006080830160008301518482036000860152610d8d8282610cd0565b91505060208301518482036020860152610da78282610cd0565b9150506040830151610dbc6040860182610c53565b506060830151610dcf6060860182610dda565b508091505092915050565b610de381610eb3565b82525050565b6000602082019050610dfe6000830184610c53565b92915050565b60006020820190508181036000830152610e1e8184610c62565b905092915050565b60006020820190508181036000830152610e408184610d06565b905092915050565b6000602082019050610e5d6000830184610dda565b92915050565b6000602082019050919050565b600081519050919050565b600081519050919050565b6000602082019050919050565b600073ffffffffffffffffffffffffffffffffffffffff82169050919050565b6000819050919050565b600073ffffffffffffffffffffffffffffffffffffffff82169050919050565b6000819050919050565b60005b83811015610f05578082015181840152602081019050610eea565b83811115610f14576000848401525b50505050565b6000601f19601f83011690509190505600a265627a7a7230582031f565af2b7242276225e8237f2d9f0422e030fcdf99cb20b6540f1a77253e5e6c6578706572696d656e74616cf50037",
  "source": "pragma solidity ^0.4.24;\npragma experimental ABIEncoderV2;\n\nimport \"openzeppelin-solidity/contracts/ownership/Ownable.sol\";\n\n\ncontract Form is Ownable {\n    struct Message {\n        string body;\n        string email;\n        address sender;\n        uint createdAt;\n    }\n\n    uint public messagesIndex;\n    Message[] private messages;\n\n    function sendApplication(string _body, string _email) external {\n        messages[messagesIndex] = Message({\n            body: _body,\n            email: _email,\n            sender: msg.sender,\n            createdAt: now\n        });\n        messagesIndex++;\n    }\n\n    function getMessages() public onlyOwner view returns (Message[]) {\n        return messages;\n    }\n\n    function getMessage(uint _messagesIndex) public onlyOwner view returns (Message) {\n        return messages[_messagesIndex];\n    }\n}",
  "sourcePath": "/Users/kenichi/Repository/GalleonProject/dForm/contracts/Form.sol",
  "compiler": {
    "name": "solc",
    "version": "0.4.24+commit.e67f0147.Linux.g++"
  },
  "schemaVersion": "3.0.0-beta.1",
  "updatedAt": "2018-10-10T15:13:53.231Z"
}